:020000020000FC
:2000000000400034086008140800683A00000000000000000000000000000000000000003E
:2000080006C00074DEC0001406800074D68613140080003410A6D01400C0003418E6D41447
:2000100010C00326100000151080010410FFFD360008110000081900003FFF06DEFFFB0481
:20001800DCC00315DC800215DC400115DC000015DFC004150021883A044000748C44040453
:200020000480004404C000C49404983A010000B42121A804840000448880001500082080D6
:200028009C3FF90E0021883A003FF706DEFFFC04DF000315DF000304E13FFD15E17FFE1558
:20003000E1BFFF15E0FFFE17E0BFFD1718800C2600000806E0BFFE1710C00104E0FFFE1502
:20003800E0FFFD1719000104E13FFD1518C0001710C00015E0FFFE17E0BFFF1718BFF51EFE
:20004000E037883ADF000017DEC00104F800283ADEFFFE04DFC00115DF000015D839883A79
:200048000100007421261B0401400074296566040180007431A61B0400080AC001000074DE
:200050002120080401400074296008040180007431A0080400080AC00100007421255B043B
:200058000140007429655B040180007431A5660400080AC00008784000089740E037883A67
:20006000DFC00117DF000017DEC00204F800283ADEFFFD04DFC00215DF000115DF00010468
:200068000009883A000827000001883A00082A400100007421255B040140007429655B048D
:200070000180007431A55B040008A70000088BC0010000742122460400090A00D120BD176A
:20007800D0E0BE17D0A0BF17180B883A100D883A000805C0E0BFFF150100004400086B4061
:20008000E13FFF1700090B40DEFFFD04DFC00215DF000115DF000104E13FFF15E13FFF17FF
:2000880000085100E037883ADFC00117DF000017DEC00204F800283ADEFFFD04DFC00215E7
:20009000DF000115DF000104E13FFF15E13FFF170140007429661504000881C0E037883A8E
:20009800DFC00117DF000017DEC00204F800283ADEFFFD04DFC00215DF000115DF00010430
:2000A000E13FFF150008E080008000441001703AE037883ADFC00117DF000017DEC00204FB
:2000A800F800283ADEFFFE04DFC00115DF000015D839883A010000742125660400082380B3
:2000B0000001883AE037883ADFC00117DF000017DEC00204F800283ADEFFFA04DFC0051555
:2000B800DF000415DF000404E13FFD15E17FFE15E1BFFF15E0BFFD1710800017E0BFFC15E6
:2000C000E0BFFC1710C00A04E0BFFD17108002171809883AE17FFE17E1BFFF17100F883A45
:2000C80000083980E037883ADFC00117DF000017DEC00204F800283ADEFFFA04DFC005153F
:2000D000DF000415DF000404E13FFD15E17FFE15E1BFFF15E0BFFD1710800017E0BFFC15CE
:2000D800E0BFFC1710C00A04E0BFFD17108002171809883AE17FFE17E1BFFF17100F883A2D
:2000E000000847C0E037883ADFC00117DF000017DEC00204F800283ADEFFF704DF00081599
:2000E800DF000804E13FFC15E17FFD15E1BFFE15E1FFFF15E0BFFC1710800017E0BFF915BD
:2000F000E0BFFD17E0BFF815E0BFFE17E0FFFD171885883AE0BFFA1500001406E0BFF91714
:2000F80010800037E0BFFB15E0BFFB1710A0000C10000626E0BFF81710C00044E0FFF8151B
:20010000E0FFFB1710C0000500000806E0FFF817E0BFFD171880012600000706E0BFFF17E9
:200108001090000C1000012600000306E0FFF817E0BFFA1718BFE936E0FFF817E0BFFD17B6
:2001100018800426E0FFF817E0BFFD171885C83A00000606E0BFFF171090000C1000022628
:2001180000BFFD440000010600BFFEC4E037883ADF000017DEC00104F800283ADEFFF90499
:20012000DF000615DF000604E13FFC15E17FFD15E1BFFE15E1FFFF15E0BFFC171080001739
:20012800E0BFFA15E0BFFE17E0FFFD171885883AE0BFFB1500000E06E0BFFA1710800104FB
:200130001080003710BFFFEC10000926E0FFFA17E0BFFD1711000044E13FFD151080000332
:2001380010803FCC1080201C10BFE00418800035E0FFFD17E0BFFB1718BFEF36E0BFFE176C
:20014000E037883ADF000017DEC00104F800283ADEFFFA04DFC00515DF000415DF00040460
:20014800E13FFF1500800244E0BFFD15E13FFD17014003F429509004000951000100BEF466
:20015000213C2004100B883A0009500001200034213FFFC4100B883A00095000E13FFF17F4
:20015800100B883A00095000E0BFFE15E0BFFE1710002926E03FFC150000160600A000346C
:2001600010BFFFC410BFFFC4103FFE1EE13FFD17014003F429509004000951000100BEF46A
:20016800213C2004100B883A0009500001200034213FFFC4100B883A00095000E0FFFF171D
:200170001885C83AE0BFFF15E0BFFC1710800044E0BFFC15E0FFFC17E0BFFE1718BFE7166D
:20017800E13FFD17014003F429509004000951000100BEF4213C2004100B883A000950002A
:200180001009883AE17FFF170009510010BFFFC4103FFE1E00000D06E13FFD17014003F438
:2001880029509004000951000100BEF4213C2004100B883A000950001009883AE17FFF1735
:200190000009510010BFFFC400BFFE160005883AE037883ADFC00117DF000017DEC002049F
:20019800F800283ADEFFFE04DFC00115DF000015D839883A0080007410A618041080001725
:2001A000100005260080007410A6180410800017103EE83A000002060080007410A6D3049E
:2001A800E037883ADFC00117DF000017DEC00204F800283ADEFFFB04DFC00415DF00031528
:2001B000DF000304E13FFF15E0BFFF1710000816E13FFF1701400304000951001007883A81
:2001B8000080007410A57B041885883A000001060005883AE0BFFD15E0BFFD171000182620
:2001C000E0BFFD17108000171080041710000626E0BFFD171080001710800417E13FFD17A5
:2001C800103EE83A000001060005883AE0BFFE15E13FFF170008D880E0BFFE171000060EB9
:2001D00000086640E0FFFE1700C7C83A10C0001500BFFFC4000006060005883A0000040660
:2001D8000008664000C0144410C0001500BFFFC4E037883ADFC00117DF000017DEC00204B0
:2001E000F800283ADEFFFF04DF000015D839883AE037883ADF000017DEC00104F800283A32
:2001E800DEFFFC04DF000315DF000304E13FFD15E17FFE15E1BFFF15E0BFFF17E037883A56
:2001F000DF000017DEC00104F800283ADEFFFE04DFC00115DF000015D839883A00800074AD
:2001F80010A6180410800017100005260080007410A6180410800017103EE83A000002064E
:200200000080007410A6D304E037883ADFC00117DF000017DEC00204F800283ADEFFFA04FE
:20020800DFC00515DF000415DF000404E13FFE15E17FFF15E0BFFE1710000326E0BFFE17F6
:20021000108002171000051E00087CC000C0058410C0001500BFFA8400001306E0BFFE1776
:20021800E0FFFF17E0FFFC15E0BFFD15E0BFFD17E0FFFC1710C00115E0BFFC1710C000170C
:20022000E0BFFD1710C00015E0BFFC1710800017E0FFFD1710C00115E0BFFC17E0FFFD174F
:2002280010C000150005883AE037883ADFC00117DF000017DEC00204F800283ADEFFFD04A8
:20023000DFC00215DF000115DF0001040080007410A55A04E0BFFF1500000606E0BFFF17A4
:2002380010800017103EE83AE0BFFF1710BFFF04E0BFFF15E0FFFF170080007410A55B0458
:2002400018BFF62EE037883ADFC00117DF000017DEC00204F800283ADEFFFD04DFC002158B
:20024800DF000115DF0001040080007410A55A04E0BFFF1500000606E0BFFF17108000179B
:20025000103EE83AE0BFFF1710BFFF04E0BFFF15E0FFFF170080007410A55B0418BFF62EEC
:20025800E037883ADFC00117DF000017DEC00204F800283ADEFFFF04DF000015D839883A5B
:20026000E037883ADF000017DEC00104F800283ADEFFF804DFC00715DF000615DC0005152E
:20026800DF000604E13FFB15E17FFC15E1BFFD15E1FFFE15E13FFC17E17FFD17E1BFFE17EB
:200270000008C2C0E0BFFA15E0BFFA17100022160400007484257B04E0BFFA171009883A13
:2002780001400304000951008085883A10C00017E0BFFB1710C000150400007484257B04E0
:20028000E0BFFA171009883A01400304000951008085883A1080010410C00017E0BFFB173D
:2002880010C001150400007484257B04E0BFFA171009883A01400304000951008085883ADC
:200290001080020410C00017E0BFFB1710C00215E13FFA170008D880E6FFFF04DFC0021708
:20029800DF000117DC000017DEC00304F800283ADEFFFB04DFC00415DF000315DF000304EC
:2002A000E13FFD15E17FFE15E1BFFF150100007421257E04E17FFD170180004401C07FC46B
:2002A800000899000100007421257B04E17FFE17000D883A01C07FC40008990001000074FD
:2002B00021258104E17FFF170180004401C07FC400089900E037883ADFC00117DF000017FD
:2002B800DEC00204F800283ADEFFFE04DFC00115DF000015D839883A0080007410A6180407
:2002C00010800017100005260080007410A6180410800017103EE83A000002060080007463
:2002C80010A6D304E037883ADFC00117DF000017DEC00204F800283ADEFFFB04DFC0041571
:2002D000DF000315DC000215DF000304E13FFE15E0BFFE171080021710D00034E0BFFE17E6
:2002D80010C00215E03FFD15000023060400007484257B04E0BFFD171009883A014003044F
:2002E000000951008085883A10C00017E0BFFE17108000171880151E0400007484257B0430
:2002E800E0BFFD171009883A01400304000951008085883A108002041080001710000B0E99
:2002F000E13FFD1701400304000951001007883A0080007410A57B041887883AE0BFFE1702
:2002F8001880022600BFFCC400000A06E0BFFD1710800044E0BFFD150080007410A617049A
:20030000108000171007883AE0BFFD1718BFD72E0005883AE6FFFF04DFC00217DF00011770
:20030800DC000017DEC00304F800283ADEFFF604DFC00915DF000815DF000804E13FFD1536
:20031000E17FFE15E1BFFF1500BFFFC4E0BFF91500BFFB44E0BFFA15E03FFB15E13FFD1768
:2003180001400074296615040008E280E0BFF815E0BFF8171000051EE13FFD170008EB80CA
:20032000E0BFF81500800044E0BFFB15E0BFF81710002B26E13FF8170008FCC0E0BFF915EF
:20032800E0BFF9171000030EE0BFF917E0BFFA1500002506E13FF91701400304000951008B
:200330001007883A0080007410A57B041885883AE0BFFC15E0FFFE170090003410BFFFC453
:200338001886703AE0BFFC1710C00215E0BFFB171000051EE13FFC170008B380E0BFFA15C4
:20034000E0BFFA1710001016E0BFF8171080031710000826E0BFF81710800317E13FFC1796
:20034800E17FFD17E1BFFE17E1FFFF17103EE83A000001060005883AE0BFFA150000020682
:2003500000BFFB44E0BFFA15E0BFFA171000080EE13FF9170008D8800008AE80E0FFFA1755
:2003580000C7C83A10C0001500BFFFC400000106E0BFF917E037883ADFC00117DF00001719
:20036000DEC00204F800283ADEFFFC04DFC00315DF000215DC000115DF000204E13FFE15EB
:20036800E0BFFE17108000D01000111E0400007484257B04E0BFFE171009883A01400304AB
:20037000000951008085883A10800204100000150400007484257B04E0BFFE171009883A62
:2003780001400304000951008085883A10000015E6FFFF04DFC00217DF000117DC0000174D
:20038000DEC00304F800283ADEFFFF04DF000015D839883A000170FAE037883ADF0000177D
:20038800DEC00104F800283ADEFFFA04DFC00515DF000415DF000404E13FFE15E17FFF153E
:20039000E0BFFF1710800017E0BFFC15E13FFE170009104010800044E0BFFD1500000D061B
:20039800E0BFFC1710C00217E0BFFD171809883AE17FFE17100D883A00090D401000021E3A
:2003A000E0BFFC1700000706E0BFFC1710800017E0BFFC15E0FFFC17E0BFFF1718BFF01EE9
:2003A8000005883AE037883ADFC00117DF000017DEC00204F800283ADEFFFB04DFC0041556
:2003B000DF000315DF000304E13FFF150080007410A6130410800017E0BFFD1500003106CC
:2003B800E0BFFD17108002171009883A00091040E0BFFE15E0BFFD1710C00217E0BFFE1793
:2003C00010BFFFC41885883A1080000310803FCC1080201C10BFE00410800BD81000031EDB
:2003C800E0BFFE1710BFFFC4E0BFFE15E0BFFE17E0FFFF171885883A1080000310803FCCE7
:2003D0001080201C10BFE00410800BE01000081EE0BFFE17E0FFFF171885883A1080000342
:2003D80010803FCC1080201C10BFE00410000A1EE0BFFD1710C00217E0BFFE171809883A80
:2003E000E17FFF17100D883A00090D401000021EE0BFFD1700000806E0BFFD171080001707
:2003E800E0BFFD15E0FFFD170080007410A6130418BFCB1E0005883AE037883ADFC0011779
:2003F000DF000017DEC00204F800283ADEFFFA04DFC00515DF000415DC000315DF00040492
:2003F800E13FFE1500BFFA04E0BFFD15E03FFC15000021060400007484257B04E0BFFC179B
:200400001009883A01400304000951008085883A108000171000151E0400007484257B040E
:20040800E0BFFC171009883A01400304000951008085883AE0FFFE1710C000150080007411
:2004100010A6170410C00017E0BFFC171880040E0080007410A61704E0FFFC1710C000151C
:20041800E0BFFC17E0BFFD1500000606E0BFFC1710800044E0BFFC15E0BFFC1710800810C5
:20042000103FDC1EE0BFFD17E6FFFF04DFC00217DF000117DC000017DEC00304F800283A37
:20042800200B883A000D883A0009883A000F883A00091201DEFFFE04000B883ADC000015A3
:20043000DFC001152021883A000926408009883A00095380218D883A2180082620C000033C
:2004380028800003188002261885C83AF800283A2100004429400044003FF7060005883A2B
:20044000F800283A2005883A10C000071800022610800044003FFC061105C83AF800283ABD
:20044800DEFFF9040080007410A61904DC40011514400017DC000015DD4005158C000C177F
:20045000DD000415DCC00315DC800215DFC006152025883A2827883A302B883A3829883A5D
:200458008000021E8C000D048C000C158080011700C007C418800D0E0080003410800004FC
:200460001000021E00BFFFC400002D0601002304000000001021883A103FFA2610000115E7
:2004680088800C17808000158C000C1590001B26808022171000091E0080003410800004FE
:20047000103FF02601004204103EE83A103FED2610004015100041158080221580C0011794
:200478000140004418C9883A2109883A1109883A2540001528C6983A1140401728CAB03AB6
:200480001140401525002015010000849100031E1100411720C6B03A10C0411580800117AE
:2004880010C00044108000841085883A1085883A80C0011580A1883A84C000150005883A25
:20049000DFC00617DD400517DD000417DCC00317DC800217DC400117DC000017DEC0070464
:20049800F800283A0080007410A6190410800017DEFFF304DDC00A15D880001510800C04DF
:2004A000DC800515DFC00C15DF000B15DD800915DD400815DD000715DCC00615DC4004156D
:2004A800DC000315D90001152825883AD880021505C00034BDC00004D8800017DC000217F5
:2004B00014C00C17980041269C4001179D0022178D7FFFC48C400044AD4F883A8C63883A1E
:2004B80039CF883A8C63883AA1ED883A9C63883AA800261690000326A0002026B10020172D
:2004C00024801E1E990001178A000017213FFFC4A900021E9D400115000001068800001567
:2004C800400016269F000117A0000526008000441548983AA1404017214A703A2800021E8E
:2004D000403EE83A00000906A14041172148703A2000041ED9000117B1400017403EE83A36
:2004D80000000206B1000017403EE83A99000117E13FD11E8100001724FFCF1EAD7FFFC43D
:2004E000B5BFFF048C7FFF04003FD906B8000F269900011798C000172000091E18000826BF
:2004E80080C00015A0000226A009883A000000009809883A0000000084C00017003FC106A8
:2004F0009821883A1827883A003FBE06DFC00C17DF000B17DDC00A17DD800917DD40081733
:2004F800DD000717DCC00617DC800517DC400417DC000317DEC00D04F800283A2900182E13
:20050000280017160080080400C00044000002061000112628000516294B883A10BFFFC49C
:2005080018C7883A293FFA3618000B260005883A214002362149C83A10C4B03A1806D07A5F
:20051000280AD07A183FFA1E3000011EF800283A2005883AF800283A0005883A003FFA06F0
:2005180000C000440005883A003FF106DEFFFF04DFC0001520000916000F883A28000A16D6
:20052000000D883A00093FC0380001260085C83ADFC00017DEC00104F800283A0109C83A3F
:2005280001C00044283FF60E014BC83A39C0005C003FF3062000031628000C160180004420
:2005300000093FC1DEFFFF04DFC000150109C83A280009160180004400093FC00085C83A67
:20053800DFC00017DEC00104F800283A014BC83A0180004400093FC1014BC83A003FF5064C
:20054000000D883A00093FC10180004400093FC10005883A2000072620C0004C2008D07A43
:20054800180001261145883A294B883A203FFA1EF800283AF800283ADEFFFD04DF00021507
:20055000DF000204E13FFF150001883AE0BFFF17E0BFFE15E0BFFE1710000226002AF070D2
:2005580000000106002AF0B0003FFF067665642F61746A2F61755F67000074727665642FA2
:2005600061746A2F61755F67000074727665642F6C756E2F0000006C000000000000000033
:20056800000000000000000000000000000000000000000000000000000000000000000073
:2005700000000000000000000000000000000000000000000000000000000000000000006B
:20057800000000000000000000000000000000000000000000000000000000000000000063
:2005800000000000000000000000000000000000000000000000000000000000000000005B
:20058800000000000000000000000000000000000000000000000000000000000000000053
:2005900000000000000000000000000000000000000000000000000000000000000000004B
:20059800000000000000000000000000000000000000000000000000000000000000000043
:2005A00000000000000000000000000000000000000000000000000000000000000000003B
:2005A800000000000000000000000000000000000000000000000000000000000000000033
:2005B00000000000000000000000000000000000000000000000000000000000000000002B
:2005B800000000000000000000000000000000000000000000000000000000000000000023
:2005C00000000000000000000000000000000000000000000000000000000000000000001B
:2005C800000000000000000000000000000000000000000000000000000000000000000013
:2005D00000000000000000000000000000000000000000000000000000000000000000000B
:2005D800000000000000000000000000000000000000000000000000000000000000000003
:2005E0000000000000000000000000000000000000000000000000000000000000000000FB
:2005E8000000000000000000000000000000000000000000000000000000000000000000F3
:2005F0000000000000000000000000000000000000000000000000000000000000000000EB
:2005F8000000000000000000000000000000000000000000000000000000000000000000E3
:200600000000000000000000000000000000000000000000000000000000000000000000DA
:200608000000000000000000000000000000000000000000000000000000000000000000D2
:200610000000000000000000000000000000000000000000000000000000000000000000CA
:2006180000000000000000000000000000000000000000000000957C0000000000000000B1
:20062000000082D8000083380000000000000000000000000001103000009854000098548C
:200628000000958C000000000000000000000000000087A00000000000000000000000006A
:20063000000095C40000000000000000000095C40000000000000000000095C4000000009F
:200638000000000000000000000000000000000000000000000000000000000000000000A2
:2006400000000000000000000000000000000000000000000000000000000000000000009A
:20064800000000000000000000000000000000000000000000000000000000000000000092
:2006500000000000000000000000000000000000000000000000000000000000000000008A
:20065800000000000000000000000000000000000000000000000000000000000000000082
:2006600000000000000000000000000000000000000000000000000000000000000000007A
:20066800000000000000000000000000000000000000000000000000000000000000000072
:2006700000000000000000000000000000000000000000000000000000000000000000006A
:20067800000000000000000000000000000000000000000000000000000000000000000062
:2006800000000000000000000000000000000000000000000000000000000000000000005A
:20068800000000000000000000000000000000000000000000000000000000000000000052
:20069000000000000000982C000098340000983C00000000000000000000000000000000E6
:20069800000000000000000000000000000000000000000000000000000000000000000042
:2006A00000000000000000000000000000000000000000000000000000000000000000003A
:2006A800000000000000000000000000000000000000000000000000000000000000000032
:2006B00000000000000000000000000000000000000000000000000000000000000000002A
:2006B800000000000000000000000000000000000000000000000000000000000000000022
:2006C00000000004000000000001000A000000000002000A000000000000000000000000FF
:2006C8000000984C0000984C000095C4000095C4FFFFFFFF000000000000976C0000976C96
:2006D00000000000000000000000000000000000000000000000000000000000000000000A
:2006D800000000000000000000000000000000000000000000000000000000000000000002
:2006E0000000000000000000000000000000000000000000000000000000000000000000FA
:2006E8000000000000000000000000000000000000000000000000000000000000000000F2
:00000001FF
